{
  "contractName": "Bank",
  "abi": [
    {
      "inputs": [
        {
          "internalType": "string",
          "name": "name",
          "type": "string"
        }
      ],
      "stateMutability": "nonpayable",
      "type": "constructor"
    },
    {
      "inputs": [],
      "name": "owner_name",
      "outputs": [
        {
          "internalType": "string",
          "name": "",
          "type": "string"
        }
      ],
      "stateMutability": "view",
      "type": "function",
      "constant": true
    },
    {
      "inputs": [],
      "name": "get_customer_total",
      "outputs": [
        {
          "internalType": "uint256",
          "name": "",
          "type": "uint256"
        }
      ],
      "stateMutability": "view",
      "type": "function",
      "constant": true
    },
    {
      "inputs": [],
      "name": "check_all_customer",
      "outputs": [
        {
          "internalType": "string[]",
          "name": "",
          "type": "string[]"
        }
      ],
      "stateMutability": "view",
      "type": "function",
      "constant": true
    },
    {
      "inputs": [
        {
          "internalType": "string",
          "name": "name",
          "type": "string"
        }
      ],
      "name": "register_customer",
      "outputs": [],
      "stateMutability": "nonpayable",
      "type": "function"
    },
    {
      "inputs": [],
      "name": "deposit",
      "outputs": [],
      "stateMutability": "payable",
      "type": "function",
      "payable": true
    },
    {
      "inputs": [
        {
          "internalType": "address",
          "name": "target_address",
          "type": "address"
        },
        {
          "internalType": "uint256",
          "name": "amount",
          "type": "uint256"
        }
      ],
      "name": "transfer",
      "outputs": [],
      "stateMutability": "payable",
      "type": "function",
      "payable": true
    },
    {
      "inputs": [],
      "name": "check_data",
      "outputs": [
        {
          "internalType": "string",
          "name": "",
          "type": "string"
        },
        {
          "internalType": "uint256",
          "name": "",
          "type": "uint256"
        }
      ],
      "stateMutability": "view",
      "type": "function",
      "constant": true
    },
    {
      "inputs": [],
      "name": "check_history",
      "outputs": [
        {
          "internalType": "string[]",
          "name": "",
          "type": "string[]"
        }
      ],
      "stateMutability": "view",
      "type": "function",
      "constant": true
    },
    {
      "inputs": [
        {
          "internalType": "uint256",
          "name": "amount",
          "type": "uint256"
        }
      ],
      "name": "withdraw",
      "outputs": [],
      "stateMutability": "nonpayable",
      "type": "function"
    }
  ],
  "bytecode": "0x608060405234801562000010575f80fd5b5060405162002d1c38038062002d1c833981810160405281019062000036919062000213565b335f806101000a81548173ffffffffffffffffffffffffffffffffffffffff021916908373ffffffffffffffffffffffffffffffffffffffff160217905550806001908162000086919062000499565b50506200057d565b5f604051905090565b5f80fd5b5f80fd5b5f80fd5b5f80fd5b5f601f19601f8301169050919050565b7f4e487b71000000000000000000000000000000000000000000000000000000005f52604160045260245ffd5b620000ef82620000a7565b810181811067ffffffffffffffff82111715620001115762000110620000b7565b5b80604052505050565b5f620001256200008e565b9050620001338282620000e4565b919050565b5f67ffffffffffffffff821115620001555762000154620000b7565b5b6200016082620000a7565b9050602081019050919050565b5f5b838110156200018c5780820151818401526020810190506200016f565b5f8484015250505050565b5f620001ad620001a78462000138565b6200011a565b905082815260208101848484011115620001cc57620001cb620000a3565b5b620001d98482856200016d565b509392505050565b5f82601f830112620001f857620001f76200009f565b5b81516200020a84826020860162000197565b91505092915050565b5f602082840312156200022b576200022a62000097565b5b5f82015167ffffffffffffffff8111156200024b576200024a6200009b565b5b6200025984828501620001e1565b91505092915050565b5f81519050919050565b7f4e487b71000000000000000000000000000000000000000000000000000000005f52602260045260245ffd5b5f6002820490506001821680620002b157607f821691505b602082108103620002c757620002c66200026c565b5b50919050565b5f819050815f5260205f209050919050565b5f6020601f8301049050919050565b5f82821b905092915050565b5f600883026200032b7fffffffffffffffffffffffffffffffffffffffffffffffffffffffffffffffff82620002ee565b620003378683620002ee565b95508019841693508086168417925050509392505050565b5f819050919050565b5f819050919050565b5f620003816200037b62000375846200034f565b62000358565b6200034f565b9050919050565b5f819050919050565b6200039c8362000361565b620003b4620003ab8262000388565b848454620002fa565b825550505050565b5f90565b620003ca620003bc565b620003d781848462000391565b505050565b5b81811015620003fe57620003f25f82620003c0565b600181019050620003dd565b5050565b601f8211156200044d576200041781620002cd565b6200042284620002df565b8101602085101562000432578190505b6200044a6200044185620002df565b830182620003dc565b50505b505050565b5f82821c905092915050565b5f6200046f5f198460080262000452565b1980831691505092915050565b5f6200048983836200045e565b9150826002028217905092915050565b620004a48262000262565b67ffffffffffffffff811115620004c057620004bf620000b7565b5b620004cc825462000299565b620004d982828562000402565b5f60209050601f8311600181146200050f575f8415620004fa578287015190505b6200050685826200047c565b86555062000575565b601f1984166200051f86620002cd565b5f5b82811015620005485784890151825560018201915060208501945060208101905062000521565b8683101562000568578489015162000564601f8916826200045e565b8355505b6001600288020188555050505b505050505050565b612791806200058b5f395ff3fe608060405260043610610085575f3560e01c8063baa370c211610058578063baa370c214610121578063cabdbf351461014b578063d0e30db014610173578063eabc47161461017d578063f2f2bc6e146101a757610085565b80632e1a7d4d146100895780637efd36ae146100b1578063a9059cbb146100db578063b1aa9a12146100f7575b5f80fd5b348015610094575f80fd5b506100af60048036038101906100aa91906119b3565b6101d2565b005b3480156100bc575f80fd5b506100c56104ba565b6040516100d291906119ed565b60405180910390f35b6100f560048036038101906100f09190611a60565b610554565b005b348015610102575f80fd5b5061010b61094d565b6040516101189190611b28565b60405180910390f35b34801561012c575f80fd5b506101356109d9565b6040516101429190611c4b565b60405180910390f35b348015610156575f80fd5b50610171600480360381019061016c9190611d97565b610d1f565b005b61017b610f6d565b005b348015610188575f80fd5b50610191611127565b60405161019e9190611c4b565b60405180910390f35b3480156101b2575f80fd5b506101bb61134c565b6040516101c9929190611dde565b60405180910390f35b3360035f8273ffffffffffffffffffffffffffffffffffffffff1673ffffffffffffffffffffffffffffffffffffffff1681526020019081526020015f206002015f9054906101000a900460ff168015610231575061023081611461565b5b610270576040517f08c379a000000000000000000000000000000000000000000000000000000000815260040161026790611e56565b60405180910390fd5b60035f3373ffffffffffffffffffffffffffffffffffffffff1673ffffffffffffffffffffffffffffffffffffffff1681526020019081526020015f20600101548211156102f3576040517f08c379a00000000000000000000000000000000000000000000000000000000081526004016102ea90611ebe565b60405180910390fd5b8160035f3373ffffffffffffffffffffffffffffffffffffffff1673ffffffffffffffffffffffffffffffffffffffff1681526020019081526020015f206001015f8282546103429190611f09565b925050819055505f3373ffffffffffffffffffffffffffffffffffffffff168360405161036e90611f69565b5f6040518083038185875af1925050503d805f81146103a8576040519150601f19603f3d011682016040523d82523d5f602084013e6103ad565b606091505b50509050806103f1576040517f08c379a00000000000000000000000000000000000000000000000000000000081526004016103e890611fc7565b60405180910390fd5b60045f3373ffffffffffffffffffffffffffffffffffffffff1673ffffffffffffffffffffffffffffffffffffffff1681526020019081526020015f2060405180604001604052804281526020016003600481111561045357610452611fe5565b5b815250908060018154018082558091505060019003905f5260205f2090600202015f909190919091505f820151815f01556020820151816001015f6101000a81548160ff021916908360048111156104ae576104ad611fe5565b5b02179055505050505050565b5f805f9054906101000a900473ffffffffffffffffffffffffffffffffffffffff1673ffffffffffffffffffffffffffffffffffffffff163373ffffffffffffffffffffffffffffffffffffffff1614610549576040517f08c379a000000000000000000000000000000000000000000000000000000000815260040161054090612082565b60405180910390fd5b600280549050905090565b3360035f8273ffffffffffffffffffffffffffffffffffffffff1673ffffffffffffffffffffffffffffffffffffffff1681526020019081526020015f206002015f9054906101000a900460ff1680156105b357506105b281611461565b5b6105f2576040517f08c379a00000000000000000000000000000000000000000000000000000000081526004016105e990611e56565b60405180910390fd5b8260035f8273ffffffffffffffffffffffffffffffffffffffff1673ffffffffffffffffffffffffffffffffffffffff1681526020019081526020015f206002015f9054906101000a900460ff168015610651575061065081611461565b5b610690576040517f08c379a000000000000000000000000000000000000000000000000000000000815260040161068790611e56565b60405180910390fd5b60035f3373ffffffffffffffffffffffffffffffffffffffff1673ffffffffffffffffffffffffffffffffffffffff1681526020019081526020015f2060010154831115610713576040517f08c379a000000000000000000000000000000000000000000000000000000000815260040161070a906120ea565b60405180910390fd5b8260035f3373ffffffffffffffffffffffffffffffffffffffff1673ffffffffffffffffffffffffffffffffffffffff1681526020019081526020015f206001015f8282546107629190611f09565b925050819055508260035f8673ffffffffffffffffffffffffffffffffffffffff1673ffffffffffffffffffffffffffffffffffffffff1681526020019081526020015f206001015f8282546107b89190612108565b9250508190555060045f3373ffffffffffffffffffffffffffffffffffffffff1673ffffffffffffffffffffffffffffffffffffffff1681526020019081526020015f2060405180604001604052804281526020016002600481111561082157610820611fe5565b5b815250908060018154018082558091505060019003905f5260205f2090600202015f909190919091505f820151815f01556020820151816001015f6101000a81548160ff0219169083600481111561087c5761087b611fe5565b5b0217905550505060045f8573ffffffffffffffffffffffffffffffffffffffff1673ffffffffffffffffffffffffffffffffffffffff1681526020019081526020015f206040518060400160405280428152602001600160048111156108e5576108e4611fe5565b5b815250908060018154018082558091505060019003905f5260205f2090600202015f909190919091505f820151815f01556020820151816001015f6101000a81548160ff021916908360048111156109405761093f611fe5565b5b0217905550505050505050565b6001805461095a90612168565b80601f016020809104026020016040519081016040528092919081815260200182805461098690612168565b80156109d15780601f106109a8576101008083540402835291602001916109d1565b820191905f5260205f20905b8154815290600101906020018083116109b457829003601f168201915b505050505081565b60605f8054906101000a900473ffffffffffffffffffffffffffffffffffffffff1673ffffffffffffffffffffffffffffffffffffffff163373ffffffffffffffffffffffffffffffffffffffff1614610a68576040517f08c379a0000000000000000000000000000000000000000000000000000000008152600401610a5f90612082565b60405180910390fd5b5f60028054905003610aaf576040517f08c379a0000000000000000000000000000000000000000000000000000000008152600401610aa6906121e2565b60405180910390fd5b5f60028054905067ffffffffffffffff811115610acf57610ace611c73565b5b604051908082528060200260200182016040528015610b0257816020015b6060815260200190600190039081610aed5790505b5090505f805b600280549050811015610d165760035f60028381548110610b2c57610b2b612200565b5b905f5260205f20015f9054906101000a900473ffffffffffffffffffffffffffffffffffffffff1673ffffffffffffffffffffffffffffffffffffffff1673ffffffffffffffffffffffffffffffffffffffff1681526020019081526020015f206002015f9054906101000a900460ff1615610d0357610bb7600183610bb29190612108565b611509565b60035f60028481548110610bce57610bcd612200565b5b905f5260205f20015f9054906101000a900473ffffffffffffffffffffffffffffffffffffffff1673ffffffffffffffffffffffffffffffffffffffff1673ffffffffffffffffffffffffffffffffffffffff1681526020019081526020015f205f01610cb560035f60028681548110610c4b57610c4a612200565b5b905f5260205f20015f9054906101000a900473ffffffffffffffffffffffffffffffffffffffff1673ffffffffffffffffffffffffffffffffffffffff1673ffffffffffffffffffffffffffffffffffffffff1681526020019081526020015f2060010154611509565b604051602001610cc79392919061236b565b604051602081830303815290604052838381518110610ce957610ce8612200565b5b60200260200101819052508180610cff906123c8565b9250505b8080610d0e906123c8565b915050610b08565b50819250505090565b60035f3373ffffffffffffffffffffffffffffffffffffffff1673ffffffffffffffffffffffffffffffffffffffff1681526020019081526020015f206002015f9054906101000a900460ff1615610dac576040517f08c379a0000000000000000000000000000000000000000000000000000000008152600401610da390612459565b60405180910390fd5b60405180606001604052808281526020015f81526020016001151581525060035f3373ffffffffffffffffffffffffffffffffffffffff1673ffffffffffffffffffffffffffffffffffffffff1681526020019081526020015f205f820151815f019081610e1a9190612602565b50602082015181600101556040820151816002015f6101000a81548160ff02191690831515021790555090505060045f3373ffffffffffffffffffffffffffffffffffffffff1673ffffffffffffffffffffffffffffffffffffffff1681526020019081526020015f206040518060400160405280428152602001600480811115610ea857610ea7611fe5565b5b815250908060018154018082558091505060019003905f5260205f2090600202015f909190919091505f820151815f01556020820151816001015f6101000a81548160ff02191690836004811115610f0357610f02611fe5565b5b02179055505050600233908060018154018082558091505060019003905f5260205f20015f9091909190916101000a81548173ffffffffffffffffffffffffffffffffffffffff021916908373ffffffffffffffffffffffffffffffffffffffff16021790555050565b3360035f8273ffffffffffffffffffffffffffffffffffffffff1673ffffffffffffffffffffffffffffffffffffffff1681526020019081526020015f206002015f9054906101000a900460ff168015610fcc5750610fcb81611461565b5b61100b576040517f08c379a000000000000000000000000000000000000000000000000000000000815260040161100290611e56565b60405180910390fd5b3460035f3373ffffffffffffffffffffffffffffffffffffffff1673ffffffffffffffffffffffffffffffffffffffff1681526020019081526020015f206001015f82825461105a9190612108565b9250508190555060045f3373ffffffffffffffffffffffffffffffffffffffff1673ffffffffffffffffffffffffffffffffffffffff1681526020019081526020015f2060405180604001604052804281526020015f60048111156110c2576110c1611fe5565b5b815250908060018154018082558091505060019003905f5260205f2090600202015f909190919091505f820151815f01556020820151816001015f6101000a81548160ff0219169083600481111561111d5761111c611fe5565b5b0217905550505050565b60605f60045f3373ffffffffffffffffffffffffffffffffffffffff1673ffffffffffffffffffffffffffffffffffffffff1681526020019081526020015f208054905067ffffffffffffffff81111561118457611183611c73565b5b6040519080825280602002602001820160405280156111b757816020015b60608152602001906001900390816111a25790505b5090505f5b60045f3373ffffffffffffffffffffffffffffffffffffffff1673ffffffffffffffffffffffffffffffffffffffff1681526020019081526020015f2080549050811015611344576112196001826112149190612108565b611509565b61127f60045f3373ffffffffffffffffffffffffffffffffffffffff1673ffffffffffffffffffffffffffffffffffffffff1681526020019081526020015f20838154811061126b5761126a612200565b5b905f5260205f2090600202015f0154611509565b6112f260045f3373ffffffffffffffffffffffffffffffffffffffff1673ffffffffffffffffffffffffffffffffffffffff1681526020019081526020015f2084815481106112d1576112d0612200565b5b905f5260205f2090600202016001015f9054906101000a900460ff166115d3565b604051602001611304939291906126d1565b60405160208183030381529060405282828151811061132657611325612200565b5b6020026020010181905250808061133c906123c8565b9150506111bc565b508091505090565b60605f60035f3373ffffffffffffffffffffffffffffffffffffffff1673ffffffffffffffffffffffffffffffffffffffff1681526020019081526020015f205f0160035f3373ffffffffffffffffffffffffffffffffffffffff1673ffffffffffffffffffffffffffffffffffffffff1681526020019081526020015f20600101548180546113db90612168565b80601f016020809104026020016040519081016040528092919081815260200182805461140790612168565b80156114525780601f1061142957610100808354040283529160200191611452565b820191905f5260205f20905b81548152906001019060200180831161143557829003601f168201915b50505050509150915091509091565b5f805f90505b6002805490508110156114ff578273ffffffffffffffffffffffffffffffffffffffff166002828154811061149f5761149e612200565b5b905f5260205f20015f9054906101000a900473ffffffffffffffffffffffffffffffffffffffff1673ffffffffffffffffffffffffffffffffffffffff16036114ec576001915050611504565b80806114f7906123c8565b915050611467565b505f90505b919050565b60605f60016115178461181e565b0190505f8167ffffffffffffffff81111561153557611534611c73565b5b6040519080825280601f01601f1916602001820160405280156115675781602001600182028036833780820191505090505b5090505f82602001820190505b6001156115c8578080600190039150507f3031323334353637383961626364656600000000000000000000000000000000600a86061a8153600a85816115bd576115bc61272e565b5b0494505f8503611574575b819350505050919050565b60606004808111156115e8576115e7611fe5565b5b8260048111156115fb576115fa611fe5565b5b0361163d576040518060400160405280600f81526020017f4163636f756e74204372656174656400000000000000000000000000000000008152509050611819565b5f60048111156116505761164f611fe5565b5b82600481111561166357611662611fe5565b5b036116a5576040518060400160405280600781526020017f4465706f736974000000000000000000000000000000000000000000000000008152509050611819565b600160048111156116b9576116b8611fe5565b5b8260048111156116cc576116cb611fe5565b5b0361170e576040518060400160405280600781526020017f52656365697665000000000000000000000000000000000000000000000000008152509050611819565b6002600481111561172257611721611fe5565b5b82600481111561173557611734611fe5565b5b03611777576040518060400160405280600881526020017f5472616e736665720000000000000000000000000000000000000000000000008152509050611819565b6003600481111561178b5761178a611fe5565b5b82600481111561179e5761179d611fe5565b5b036117e0576040518060400160405280600881526020017f57697468647261770000000000000000000000000000000000000000000000008152509050611819565b6040518060400160405280600e81526020017f556e6b6e6f776e2053746174757300000000000000000000000000000000000081525090505b919050565b5f805f90507a184f03e93ff9f4daa797ed6e38ed64bf6a1f010000000000000000831061187a577a184f03e93ff9f4daa797ed6e38ed64bf6a1f01000000000000000083816118705761186f61272e565b5b0492506040810190505b6d04ee2d6d415b85acef810000000083106118b7576d04ee2d6d415b85acef810000000083816118ad576118ac61272e565b5b0492506020810190505b662386f26fc1000083106118e657662386f26fc1000083816118dc576118db61272e565b5b0492506010810190505b6305f5e100831061190f576305f5e10083816119055761190461272e565b5b0492506008810190505b612710831061193457612710838161192a5761192961272e565b5b0492506004810190505b60648310611957576064838161194d5761194c61272e565b5b0492506002810190505b600a8310611966576001810190505b80915050919050565b5f604051905090565b5f80fd5b5f80fd5b5f819050919050565b61199281611980565b811461199c575f80fd5b50565b5f813590506119ad81611989565b92915050565b5f602082840312156119c8576119c7611978565b5b5f6119d58482850161199f565b91505092915050565b6119e781611980565b82525050565b5f602082019050611a005f8301846119de565b92915050565b5f73ffffffffffffffffffffffffffffffffffffffff82169050919050565b5f611a2f82611a06565b9050919050565b611a3f81611a25565b8114611a49575f80fd5b50565b5f81359050611a5a81611a36565b92915050565b5f8060408385031215611a7657611a75611978565b5b5f611a8385828601611a4c565b9250506020611a948582860161199f565b9150509250929050565b5f81519050919050565b5f82825260208201905092915050565b5f5b83811015611ad5578082015181840152602081019050611aba565b5f8484015250505050565b5f601f19601f8301169050919050565b5f611afa82611a9e565b611b048185611aa8565b9350611b14818560208601611ab8565b611b1d81611ae0565b840191505092915050565b5f6020820190508181035f830152611b408184611af0565b905092915050565b5f81519050919050565b5f82825260208201905092915050565b5f819050602082019050919050565b5f82825260208201905092915050565b5f611b8b82611a9e565b611b958185611b71565b9350611ba5818560208601611ab8565b611bae81611ae0565b840191505092915050565b5f611bc48383611b81565b905092915050565b5f602082019050919050565b5f611be282611b48565b611bec8185611b52565b935083602082028501611bfe85611b62565b805f5b85811015611c395784840389528151611c1a8582611bb9565b9450611c2583611bcc565b925060208a01995050600181019050611c01565b50829750879550505050505092915050565b5f6020820190508181035f830152611c638184611bd8565b905092915050565b5f80fd5b5f80fd5b7f4e487b71000000000000000000000000000000000000000000000000000000005f52604160045260245ffd5b611ca982611ae0565b810181811067ffffffffffffffff82111715611cc857611cc7611c73565b5b80604052505050565b5f611cda61196f565b9050611ce68282611ca0565b919050565b5f67ffffffffffffffff821115611d0557611d04611c73565b5b611d0e82611ae0565b9050602081019050919050565b828183375f83830152505050565b5f611d3b611d3684611ceb565b611cd1565b905082815260208101848484011115611d5757611d56611c6f565b5b611d62848285611d1b565b509392505050565b5f82601f830112611d7e57611d7d611c6b565b5b8135611d8e848260208601611d29565b91505092915050565b5f60208284031215611dac57611dab611978565b5b5f82013567ffffffffffffffff811115611dc957611dc861197c565b5b611dd584828501611d6a565b91505092915050565b5f6040820190508181035f830152611df68185611af0565b9050611e0560208301846119de565b9392505050565b7f435553544f4d455220444f45534e2754204558495354000000000000000000005f82015250565b5f611e40601683611aa8565b9150611e4b82611e0c565b602082019050919050565b5f6020820190508181035f830152611e6d81611e34565b9050919050565b7f494e53554646494349454e542042414c414e43450000000000000000000000005f82015250565b5f611ea8601483611aa8565b9150611eb382611e74565b602082019050919050565b5f6020820190508181035f830152611ed581611e9c565b9050919050565b7f4e487b71000000000000000000000000000000000000000000000000000000005f52601160045260245ffd5b5f611f1382611980565b9150611f1e83611980565b9250828203905081811115611f3657611f35611edc565b5b92915050565b5f81905092915050565b50565b5f611f545f83611f3c565b9150611f5f82611f46565b5f82019050919050565b5f611f7382611f49565b9150819050919050565b7f5452414e53464552204641494c454400000000000000000000000000000000005f82015250565b5f611fb1600f83611aa8565b9150611fbc82611f7d565b602082019050919050565b5f6020820190508181035f830152611fde81611fa5565b9050919050565b7f4e487b71000000000000000000000000000000000000000000000000000000005f52602160045260245ffd5b7f594f5520415245204e4f5420414e204f574e4552204f4620544849532042414e5f8201527f4b00000000000000000000000000000000000000000000000000000000000000602082015250565b5f61206c602183611aa8565b915061207782612012565b604082019050919050565b5f6020820190508181035f83015261209981612060565b9050919050565b7f42414c414e43452049534e275420454e4f5547480000000000000000000000005f82015250565b5f6120d4601483611aa8565b91506120df826120a0565b602082019050919050565b5f6020820190508181035f830152612101816120c8565b9050919050565b5f61211282611980565b915061211d83611980565b925082820190508082111561213557612134611edc565b5b92915050565b7f4e487b71000000000000000000000000000000000000000000000000000000005f52602260045260245ffd5b5f600282049050600182168061217f57607f821691505b6020821081036121925761219161213b565b5b50919050565b7f546865726520617265206e6f20637573746f6d657200000000000000000000005f82015250565b5f6121cc601583611aa8565b91506121d782612198565b602082019050919050565b5f6020820190508181035f8301526121f9816121c0565b9050919050565b7f4e487b71000000000000000000000000000000000000000000000000000000005f52603260045260245ffd5b7f4e6f2e2000000000000000000000000000000000000000000000000000000000815250565b5f81905092915050565b5f61226782611a9e565b6122718185612253565b9350612281818560208601611ab8565b80840191505092915050565b7f202d3e2000000000000000000000000000000000000000000000000000000000815250565b5f819050815f5260205f209050919050565b5f81546122d181612168565b6122db8186612253565b9450600182165f81146122f5576001811461230a5761233c565b60ff198316865281151582028601935061233c565b612313856122b3565b5f5b8381101561233457815481890152600182019150602081019050612315565b838801955050505b50505092915050565b7f2c20000000000000000000000000000000000000000000000000000000000000815250565b5f6123758261222d565b600482019150612385828661225d565b91506123908261228d565b6004820191506123a082856122c5565b91506123ab82612345565b6002820191506123bb828461225d565b9150819050949350505050565b5f6123d282611980565b91507fffffffffffffffffffffffffffffffffffffffffffffffffffffffffffffffff820361240457612403611edc565b5b600182019050919050565b7f435553544f4d455220414c5245414459205245474953544552454400000000005f82015250565b5f612443601b83611aa8565b915061244e8261240f565b602082019050919050565b5f6020820190508181035f83015261247081612437565b9050919050565b5f6020601f8301049050919050565b5f82821b905092915050565b5f600883026124c17fffffffffffffffffffffffffffffffffffffffffffffffffffffffffffffffff82612486565b6124cb8683612486565b95508019841693508086168417925050509392505050565b5f819050919050565b5f6125066125016124fc84611980565b6124e3565b611980565b9050919050565b5f819050919050565b61251f836124ec565b61253361252b8261250d565b848454612492565b825550505050565b5f90565b61254761253b565b612552818484612516565b505050565b5b818110156125755761256a5f8261253f565b600181019050612558565b5050565b601f8211156125ba5761258b816122b3565b61259484612477565b810160208510156125a3578190505b6125b76125af85612477565b830182612557565b50505b505050565b5f82821c905092915050565b5f6125da5f19846008026125bf565b1980831691505092915050565b5f6125f283836125cb565b9150826002028217905092915050565b61260b82611a9e565b67ffffffffffffffff81111561262457612623611c73565b5b61262e8254612168565b612639828285612579565b5f60209050601f83116001811461266a575f8415612658578287015190505b61266285826125e7565b8655506126c9565b601f198416612678866122b3565b5f5b8281101561269f5784890151825560018201915060208501945060208101905061267a565b868310156126bc57848901516126b8601f8916826125cb565b8355505b6001600288020188555050505b505050505050565b5f6126db8261222d565b6004820191506126eb828661225d565b91506126f68261228d565b600482019150612706828561225d565b915061271182612345565b600282019150612721828461225d565b9150819050949350505050565b7f4e487b71000000000000000000000000000000000000000000000000000000005f52601260045260245ffdfea2646970667358221220754b49a24f899f17502f46cb99e0aeaf2b89000bb8f068bce0a4f8d0e9a48e6c64736f6c63430008140033",
  "immutableReferences": {},
  "source": "// SPDX-License-Identifier: GPL-3.0\r\n\r\npragma solidity >=0.8.2 <0.9.0;\r\n\r\nimport \"@openzeppelin/contracts/utils/Strings.sol\";\r\n\r\ncontract Bank{\r\n    address private owner_address;\r\n    string public owner_name;\r\n\r\n    constructor(string memory name) {\r\n        owner_address = msg.sender;\r\n        owner_name = name;\r\n    }\r\n\r\n    address[] private customer_list;\r\n\r\n    enum Status{DEPOSIT, RECEIVE, TRANSFER, WITHDRAW, ACCOUNT_CREATED}\r\n\r\n    struct Transaction_history{\r\n        uint date;\r\n        Status status;\r\n    }\r\n    struct Customer_data{\r\n        string name;\r\n        uint balance;\r\n        bool active;   \r\n    }\r\n\r\n    mapping(address => Customer_data) customer;\r\n    mapping(address => Transaction_history[]) history;\r\n\r\n    // is customer exist or not\r\n    modifier exist(address alamat){\r\n        require(customer[alamat].active && addressExists(alamat), \"CUSTOMER DOESN'T EXIST\");\r\n        _;\r\n    }\r\n\r\n    modifier ownership(){\r\n        require(msg.sender == owner_address, \"YOU ARE NOT AN OWNER OF THIS BANK\");\r\n        _;\r\n    }\r\n\r\n    modifier customer_exist(){\r\n        require(customer_list.length != 0, \"There are no customer\");\r\n        _;\r\n    } \r\n\r\n    function addressExists(address alamat) private view returns(bool) {\r\n        for(uint i=0; i<customer_list.length; i++) {\r\n            if(customer_list[i] == alamat) {\r\n                return true;\r\n            }\r\n        }\r\n        return false;\r\n    }\r\n\r\n    function get_customer_total() public view ownership() returns(uint){\r\n        return customer_list.length;\r\n    }\r\n\r\n    //\r\n    function check_all_customer() public view ownership() customer_exist() returns(string[] memory) {\r\n        string[] memory list_of_customer = new string[](customer_list.length);\r\n        uint count = 0;\r\n\r\n        for(uint i=0; i<customer_list.length; i++) {\r\n            if(customer[customer_list[i]].active) {\r\n                list_of_customer[count] = string.concat(\r\n                    \"No. \", Strings.toString(count+1),\r\n                    \" -> \", customer[customer_list[i]].name,\r\n                    \", \", Strings.toString(customer[customer_list[i]].balance)\r\n                );\r\n                count++;\r\n            }\r\n        }\r\n\r\n        return list_of_customer;\r\n    }\r\n\r\n    // register new customer\r\n    function register_customer(string memory name)public {\r\n        require(!customer[msg.sender].active, \"CUSTOMER ALREADY REGISTERED\");\r\n\r\n        customer[msg.sender] = Customer_data(name, 0, true);\r\n        history[msg.sender].push(Transaction_history(block.timestamp, Status.ACCOUNT_CREATED));\r\n\r\n        customer_list.push(msg.sender);\r\n    }\r\n\r\n    // deposit\r\n    function deposit()public payable exist(msg.sender){\r\n        customer[msg.sender].balance += msg.value;\r\n\r\n        history[msg.sender].push(Transaction_history(block.timestamp, Status.DEPOSIT));\r\n    }\r\n\r\n    // transfer to another account\r\n    function transfer(address target_address, uint amount) \r\n                public payable exist(msg.sender) exist(target_address){\r\n        \r\n        require(amount <= customer[msg.sender].balance, \"BALANCE ISN'T ENOUGH\");\r\n\r\n        customer[msg.sender].balance -= amount;\r\n        customer[target_address].balance += amount;\r\n\r\n        history[msg.sender].push(Transaction_history(block.timestamp, Status.TRANSFER));\r\n        history[target_address].push(Transaction_history(block.timestamp, Status.RECEIVE));\r\n    }\r\n\r\n    // check customer data\r\n    function check_data()public view returns(string memory, uint){\r\n        return (customer[msg.sender].name, customer[msg.sender].balance);\r\n    }\r\n\r\n    function check_history() public view returns(string[] memory){\r\n        string[] memory list_of_history = new string[](history[msg.sender].length);\r\n        for(uint i=0; i<history[msg.sender].length; i++){\r\n            list_of_history[i] = \r\n                string.concat\r\n                    (\r\n                    \"No. \", Strings.toString(i+1), \r\n                    \" -> \", Strings.toString(history[msg.sender][i].date),\r\n                     \", \", status_to_string(history[msg.sender][i].status)\r\n                );\r\n        }\r\n\r\n        return list_of_history;\r\n    }\r\n\r\n    // withdraw\r\n    function withdraw(uint amount)public exist(msg.sender){\r\n        require(amount <= customer[msg.sender].balance, \"INSUFFICIENT BALANCE\");\r\n        // Effects: Kurangi saldo pelanggan\r\n        customer[msg.sender].balance -= amount;\r\n        // Interactions: Kirim uang ke pelanggan\r\n        (bool success, ) = payable(msg.sender).call{value: amount}(\"\");\r\n        require(success, \"TRANSFER FAILED\");\r\n        // Catat transaksi\r\n        history[msg.sender].push(Transaction_history(block.timestamp, Status.WITHDRAW));\r\n    }\r\n\r\n    function status_to_string(Status status) private pure returns(string memory){\r\n        if(status == Status.ACCOUNT_CREATED) return \"Account Created\";\r\n        if(status == Status.DEPOSIT) return \"Deposit\";\r\n        if(status == Status.RECEIVE) return \"Receive\";\r\n        if(status == Status.TRANSFER) return \"Transfer\";\r\n        if(status == Status.WITHDRAW) return \"Withdraw\";\r\n        return \"Unknown Status\";\r\n    }\r\n}",
  "sourcePath": "D:\\MyCode\\EthereumBank\\Bank 2\\contracts\\Bank.sol",
  "compiler": {
    "name": "solc",
    "version": "0.8.20+commit.a1b79de6.Emscripten.clang"
  },
  "schemaVersion": "3.4.16",
  "updatedAt": "2025-03-06T10:05:28.443Z",
  "networkType": "ethereum",
  "devdoc": {
    "kind": "dev",
    "methods": {},
    "version": 1
  },
  "userdoc": {
    "kind": "user",
    "methods": {},
    "version": 1
  }
}